{
  "_format": "hh-sol-artifact-1",
  "contractName": "Lottery",
  "sourceName": "contracts/Lottery.sol",
  "abi": [
    {
      "inputs": [],
      "stateMutability": "nonpayable",
      "type": "constructor"
    },
    {
      "inputs": [],
      "name": "enter",
      "outputs": [],
      "stateMutability": "payable",
      "type": "function"
    },
    {
      "inputs": [],
      "name": "manager",
      "outputs": [
        {
          "internalType": "address",
          "name": "",
          "type": "address"
        }
      ],
      "stateMutability": "view",
      "type": "function"
    },
    {
      "inputs": [],
      "name": "pickRandomWinner",
      "outputs": [
        {
          "internalType": "address",
          "name": "",
          "type": "address"
        }
      ],
      "stateMutability": "nonpayable",
      "type": "function"
    },
    {
      "inputs": [
        {
          "internalType": "uint256",
          "name": "",
          "type": "uint256"
        }
      ],
      "name": "players",
      "outputs": [
        {
          "internalType": "address",
          "name": "",
          "type": "address"
        }
      ],
      "stateMutability": "view",
      "type": "function"
    },
    {
      "inputs": [],
      "name": "returnEntries",
      "outputs": [
        {
          "internalType": "address[]",
          "name": "",
          "type": "address[]"
        }
      ],
      "stateMutability": "view",
      "type": "function"
    }
  ],
  "bytecode": "0x6080604052348015600f57600080fd5b50336000806101000a81548173ffffffffffffffffffffffffffffffffffffffff021916908373ffffffffffffffffffffffffffffffffffffffff160217905550610a878061005f6000396000f3fe60806040526004361061004a5760003560e01c806308a4def81461004f578063481c6a751461007a578063898da229146100a5578063e97dcb62146100d0578063f71d96cb146100da575b600080fd5b34801561005b57600080fd5b50610064610117565b604051610071919061073a565b60405180910390f35b34801561008657600080fd5b5061008f610233565b60405161009c919061076b565b60405180910390f35b3480156100b157600080fd5b506100ba610257565b6040516100c7919061076b565b60405180910390f35b6100d86103f6565b005b3480156100e657600080fd5b5061010160048036038101906100fc91906107c1565b610533565b60405161010e919061076b565b60405180910390f35b606060008054906101000a900473ffffffffffffffffffffffffffffffffffffffff1673ffffffffffffffffffffffffffffffffffffffff163373ffffffffffffffffffffffffffffffffffffffff16146101a7576040517f08c379a000000000000000000000000000000000000000000000000000000000815260040161019e90610871565b60405180910390fd5b600180548060200260200160405190810160405280929190818152602001828054801561022957602002820191906000526020600020905b8160009054906101000a900473ffffffffffffffffffffffffffffffffffffffff1673ffffffffffffffffffffffffffffffffffffffff16815260200190600101908083116101df575b5050505050905090565b60008054906101000a900473ffffffffffffffffffffffffffffffffffffffff1681565b60008060009054906101000a900473ffffffffffffffffffffffffffffffffffffffff1673ffffffffffffffffffffffffffffffffffffffff163373ffffffffffffffffffffffffffffffffffffffff16146102e8576040517f08c379a00000000000000000000000000000000000000000000000000000000081526004016102df90610871565b60405180910390fd5b60006001805490506102f8610572565b61030291906108c0565b905060006001828154811061031a576103196108f1565b5b9060005260206000200160009054906101000a900473ffffffffffffffffffffffffffffffffffffffff1690508073ffffffffffffffffffffffffffffffffffffffff166108fc479081150290604051600060405180830381858888f1935050505015801561038d573d6000803e3d6000fd5b50600067ffffffffffffffff8111156103a9576103a8610920565b5b6040519080825280602002602001820160405280156103d75781602001602082028036833780820191505090505b50600190805190602001906103ed9291906105a3565b50809250505090565b662386f26fc10000341015610440576040517f08c379a00000000000000000000000000000000000000000000000000000000081526004016104379061099b565b60405180910390fd5b60008054906101000a900473ffffffffffffffffffffffffffffffffffffffff1673ffffffffffffffffffffffffffffffffffffffff163373ffffffffffffffffffffffffffffffffffffffff16036104ce576040517f08c379a00000000000000000000000000000000000000000000000000000000081526004016104c590610a07565b60405180910390fd5b6001339080600181540180825580915050600190039060005260206000200160009091909190916101000a81548173ffffffffffffffffffffffffffffffffffffffff021916908373ffffffffffffffffffffffffffffffffffffffff160217905550565b6001818154811061054357600080fd5b906000526020600020016000915054906101000a900473ffffffffffffffffffffffffffffffffffffffff1681565b6000446040516020016105859190610a36565b6040516020818303038152906040528051906020012060001c905090565b82805482825590600052602060002090810192821561061c579160200282015b8281111561061b5782518260006101000a81548173ffffffffffffffffffffffffffffffffffffffff021916908373ffffffffffffffffffffffffffffffffffffffff160217905550916020019190600101906105c3565b5b509050610629919061062d565b5090565b5b8082111561064657600081600090555060010161062e565b5090565b600081519050919050565b600082825260208201905092915050565b6000819050602082019050919050565b600073ffffffffffffffffffffffffffffffffffffffff82169050919050565b60006106a182610676565b9050919050565b6106b181610696565b82525050565b60006106c383836106a8565b60208301905092915050565b6000602082019050919050565b60006106e78261064a565b6106f18185610655565b93506106fc83610666565b8060005b8381101561072d57815161071488826106b7565b975061071f836106cf565b925050600181019050610700565b5085935050505092915050565b6000602082019050818103600083015261075481846106dc565b905092915050565b61076581610696565b82525050565b6000602082019050610780600083018461075c565b92915050565b600080fd5b6000819050919050565b61079e8161078b565b81146107a957600080fd5b50565b6000813590506107bb81610795565b92915050565b6000602082840312156107d7576107d6610786565b5b60006107e5848285016107ac565b91505092915050565b600082825260208201905092915050565b7f4f6e6c7920636f6e7472616374206d616e616765722063616e2063616c6c207460008201527f6869732066756e6374696f6e0000000000000000000000000000000000000000602082015250565b600061085b602c836107ee565b9150610866826107ff565b604082019050919050565b6000602082019050818103600083015261088a8161084e565b9050919050565b7f4e487b7100000000000000000000000000000000000000000000000000000000600052601260045260246000fd5b60006108cb8261078b565b91506108d68361078b565b9250826108e6576108e5610891565b5b828206905092915050565b7f4e487b7100000000000000000000000000000000000000000000000000000000600052603260045260246000fd5b7f4e487b7100000000000000000000000000000000000000000000000000000000600052604160045260246000fd5b7f496e7375666669656e742066756e647300000000000000000000000000000000600082015250565b60006109856010836107ee565b91506109908261094f565b602082019050919050565b600060208201905081810360008301526109b481610978565b9050919050565b7f436f6e7472616374206973206e6f7420616c6c6f77656420746f206a6f696e00600082015250565b60006109f1601f836107ee565b91506109fc826109bb565b602082019050919050565b60006020820190508181036000830152610a20816109e4565b9050919050565b610a308161078b565b82525050565b6000602082019050610a4b6000830184610a27565b9291505056fea2646970667358221220d436f9272450dfee94e6305dc1ff303869c37c127280a4a60955af2b4d7d67ff64736f6c634300081c0033",
  "linkReferences": {},
  "deployedLinkReferences": {}
}